:020000040000FA
:100000000C944D010C9475010C9475010C947501C0
:100010000C9475010C9475010C9475010C94750188
:100020000C9475010C9475010C9475010C94750178
:100030000C9475010C9475010C9475010C94750168
:100040000C9447040C9475010C94B7040C9491041F
:100050000C9475010C9475010C9475010C94750148
:100060000C9475010C947501000000000000005F05
:1000700000000007000700147F147F14242A7F2A41
:10008000122313086462364955225000050300000C
:10009000001C2241000041221C0014083E081408E4
:1000A000083E0808005030000008080808080060F2
:1000B00060000020100804023E5149453E00427F86
:1000C000400042615149462141454B311814127F8D
:1000D0001027454545393C4A494930017109050316
:1000E0003649494936064949291E0036360000007E
:1000F0005636000008142241001414141414004150
:100100002214080201510906324979413E7E11113B
:10011000117E7F494949363E414141227F4141227A
:100120001C7F494949417F090909013E4149497AF2
:100130007F0808087F00417F41002040413F017F48
:10014000081422417F404040407F020C027F7F0420
:1001500008107F3E4141413E7F090909063E415159
:10016000215E7F09192946464949493101017F012C
:10017000013F4040403F1F2040201F3F4038403F4C
:100180006314081463070870080761514945430068
:100190007F41410002040810200041417F00040219
:1001A0000102044040404040000102040020545439
:1001B00054787F48444438384444442038444448C0
:1001C0007F3854545418087E0901020C5252523E92
:1001D0007F0804047800447D40002040443D007FB7
:1001E0001028440000417F40007C041804787C08FB
:1001F00004047838444444387C1414140808141453
:10020000187C7C080404084854545420043F44409B
:10021000203C4040207C1C2040201C3C4030403C86
:1002200044281028440C5050503C4464544C440022
:100230000836410000007F00000041360800100829
:100240000810080000000000000000002400270043
:100250002A0000000000250028002B0004040404EC
:100260000404040402020202020203030303030360
:10027000010204081020408001020408102001023D
:100280000408102000000008000201000003040719
:100290000000000000000000E90411241FBECFEFA1
:1002A000D8E0DEBFCDBF11E0A0E0B1E0ECE5FEE0BC
:1002B00002C005900D92AC32B107D9F722E0ACE252
:1002C000B1E001C01D92A332B207E1F711E0CDE425
:1002D000D1E004C02197FE010E942607CC34D1074B
:1002E000C9F70E9429050C942C070C94000090E09B
:1002F000FC01EC57FD4F2491FC01E059FD4F349176
:10030000FC01E45AFD4FE491EE23C9F0222339F0B9
:10031000233001F1A8F4213019F1223029F1F0E065
:10032000EE0FFF1FEE5AFD4FA591B4918FB7F894D1
:10033000EC91611126C030953E233C938FBF089508
:100340002730A9F02830C9F0243049F78091800087
:100350008F7D03C0809180008F7780938000DFCFF6
:1003600084B58F7784BDDBCF84B58F7DFBCF809143
:10037000B0008F778093B000D2CF8091B0008F7D96
:10038000F9CF3E2BDACFCF93DF9390E0FC01E05919
:10039000FD4F2491845A9D4FFC0184918823D1F014
:1003A00090E0880F991FFC01E85BFD4FA591B49187
:1003B000FC01EE5AFD4FC591D49161110EC09FB75B
:1003C000F8948C91E22FE0958E238C932881E22380
:1003D000E8839FBFDF91CF9108958FB7F894EC9198
:1003E000E22BEC938FBFF6CF3FB7F89480913301A7
:1003F00090913401A0913501B091360126B5A89BAA
:1004000005C02F3F19F00196A11DB11D3FBFBA2FA6
:10041000A92F982F8827BC01CD01620F711D811D66
:10042000911D42E0660F771F881F991F4A95D1F7EB
:1004300008958F929F92AF92BF92CF92DF92EF92E8
:10044000FF924B015C010E94F4016B017C010E9450
:10045000F4016C197D098E099F09683E734081057E
:100460009105A8F321E0821A9108A108B10888EE4D
:10047000C80E83E0D81EE11CF11C81149104A10474
:10048000B10429F7FF90EF90DF90CF90BF90AF902D
:100490009F908F900895AF92BF92CF92DF92EF928C
:1004A000FF920F931F93CF93DF936C017B018B011E
:1004B000040F151FEB015E01AE18BF08C017D1076E
:1004C00059F06991D601ED91FC910190F081E02DF8
:1004D000C6010995892B79F7C501DF91CF911F914D
:1004E0000F91FF90EF90DF90CF90BF90AF90089565
:1004F000FC01538D448D252F30E0842F90E0821B2A
:10050000930B541710F0CF96089501970895FC01AE
:10051000918D828D981761F0A28DAE0FBF2FB11D06
:100520005D968C91928D9F5F9F73928F90E008955E
:100530008FEF9FEF0895FC01918D828D981731F018
:10054000828DE80FF11D858D90E008958FEF9FEF6C
:100550000895FC01918D228D892F90E0805C9F4F42
:10056000821B91098F739927089587E391E00E9478
:10057000A90221E0892B09F420E0822F089580E070
:1005800090E0892B29F00E94B50281110C940000A3
:100590000895FC01A48DA80FB92FB11DA35ABF4F18
:1005A0002C91848D90E001968F739927848FA68972
:1005B000B7892C93A089B1898C91837080648C93C6
:1005C000938D848D981306C00288F389E02D808175
:1005D0008F7D80830895EF92FF920F931F93CF93A7
:1005E000DF93EC0181E0888F9B8D8C8D98131AC06E
:1005F000E889F989808185FF15C09FB7F894EE8955
:10060000FF896083E889F9898081837080648083B1
:100610009FBF81E090E0DF91CF911F910F91FF90FC
:10062000EF900895F62E0B8D10E00F5F1F4F0F73A4
:100630001127E02E8C8D8E110CC00FB607FCFACF5F
:10064000E889F989808185FFF5CFCE010E94C90232
:10065000F1CFEB8DEC0FFD2FF11DE35AFF4FF08230
:100660009FB7F8940B8FEA89FB8980818062CFCF96
:10067000CF93DF93EC01888D8823B9F0AA89BB89D9
:10068000E889F9898C9185FD03C0808186FD0DC0C4
:100690000FB607FCF7CF8C9185FFF2CF808185FFE5
:1006A000EDCFCE010E94C902E9CFDF91CF9108952D
:1006B000089590E080E00895EF92FF920F931F93CA
:1006C000CF93DF93EC01042F8E810E94770160E0CD
:1006D00088850E947701FC80ED8018E0602F661FFE
:1006E0006627661F8E2D0E947701000F61E08F2D17
:1006F0000E94770160E08F2D0E947701115071F701
:1007000061E08885DF91CF911F910F91FF90EF906D
:100710000C947701CF93DF93C4EDD1E01C8690E079
:100720006B8529E3629F612D1124669570E06F5FF0
:100730007F4F0E94DC068D8740E860E0CE010E947A
:100740005C034D85406460E0CE01DF91CF910C9455
:100750005C03CF93DF9380E00E948A03D0E0C0E087
:100760008091DF018695869586959091DE01899F1F
:10077000C0011124C817D90740F440E061E084EDBE
:1007800091E00E945C032196EBCF80E0DF91CF9156
:100790000C948A03CF92DF92EF92FF920F931F93F4
:1007A000CF93DF9300D000D01F92CDB7DEB767FDA7
:1007B0006BC07C01862F90E0603208F455C08097B2
:1007C00025E0289FB001299F700D112468597F4FA3
:1007D00045E050E0CE0101960E94D3068E010F5FE6
:1007E0001F4F680185E0C80ED11CF80141918F01AF
:1007F000F70186858111409561E0C7010E945C0385
:100800000C151D0591F7F7014685419561E0C7017B
:100810000E945C03F701848590E00696628570E093
:100820000E94DC068487892B79F4858590E0019607
:10083000638529E3629F612D1124669570E06F5FE7
:100840007F4F0E94DC06858781E090E00F900F903B
:100850000F900F900F90DF91CF911F910F91FF900C
:10086000EF90DF90CF900895880F991FF701E80F60
:10087000F91F078510890115110509F0B2CF45E070
:1008800050E068E670E0A6CF90E080E0DFCF1F92F6
:100890000F920FB60F9211242F933F938F939F9334
:1008A000AF93BF9380912F0190913001A0913101BE
:1008B000B091320130912E0123E0230F2D3758F5EE
:1008C0000196A11DB11D20932E0180932F019093BD
:1008D0003001A0933101B0933201809133019091A6
:1008E0003401A0913501B09136010196A11DB11DD1
:1008F0008093330190933401A0933501B093360176
:10090000BF91AF919F918F913F912F910F900FBE0B
:100910000F901F90189526E8230F0296A11DB11D78
:10092000D2CF1F920F920FB60F9211242F933F93A5
:100930004F935F936F937F938F939F93AF93BF93E7
:10094000EF93FF9387E391E00E94C902FF91EF913B
:10095000BF91AF919F918F917F916F915F914F91D7
:100960003F912F910F900FBE0F901F9018951F92DF
:100970000F920FB60F9211242F938F939F93EF93A3
:10098000FF93E0914701F09148018081E0914D0192
:10099000F0914E0182FD1BC09081809150018F5FCC
:1009A0008F7320915101821741F0E0915001F0E0E6
:1009B000E95CFE4F958F80935001FF91EF919F91DD
:1009C0008F912F910F900FBE0F901F9018958081DF
:1009D000F4CFE7E3F1E01382128288EE93E0A0E027
:1009E000B0E084839583A683B78384E091E091830C
:1009F000808385EC90E09587848784EC90E09787EE
:100A0000868780EC90E0918B808B81EC90E0938BDB
:100A1000828B82EC90E0958B848B86EC90E0978BB8
:100A2000868B118E128E138E148EE4EDF1E01382FC
:100A3000128286E191E09183808383E0848384E065
:100A4000858385E0868386E0878387E080871686B6
:100A50000895CF93DF93CDB7DEB7A1970FB6F89483
:100A6000DEBF0FBECDBF789484B5826084BD84B5EF
:100A7000816084BD85B5826085BD85B5816085BD99
:100A800080916E00816080936E0010928100809151
:100A900081008260809381008091810081608093D9
:100AA0008100809180008160809380008091B100FE
:100AB00084608093B1008091B00081608093B00029
:100AC00080917A00846080937A0080917A008260BD
:100AD00080937A0080917A00816080937A0080917F
:100AE0007A00806880937A001092C10084E5809338
:100AF000DE0180E38093DF011092DD011092E001BE
:100B00001092E101E3EEF1E080E4DF011D928A95AD
:100B1000E9F761E08091D8010E94C30161E0809112
:100B2000D9010E94C30161E08091DA010E94C301F2
:100B300061E08091DB010E94C30161E08091DC01F2
:100B40000E94C30161E08091DB010E94770161E0B6
:100B50008091DC010E94770160E08091DB010E94BE
:100B6000770164E670E080E090E00E94190261E0A5
:100B70008091DB010E94770141E260E084ED91E029
:100B80000E945C0343E160E084ED91E00E945C031D
:100B90008091DD0142EC813039F440EE60E084ED7B
:100BA00091E00E945C0345E060E084ED91E00E94EA
:100BB0005C0340E260E084ED91E00E945C0349E068
:100BC00060E084ED91E00E945C030E94A90348E08C
:100BD00060E084ED91E00E945C034CE060E084ED15
:100BE00091E00E945C0364E670E080E090E00E9487
:100BF000190240E860E084ED91E00E945C0340E46B
:100C000060E084ED91E00E945C0361E080E00E947E
:100C1000C30161E081E00E94C30161E082E00E94C3
:100C2000C30161E088E00E94C30160E08DE00E94A2
:100C3000C30160E08CE00E94C301E0914701F091A4
:100C4000480182E08083E0914301F09144011082E9
:100C5000E0914501F09146018FEC808310924F01A5
:100C6000E0914B01F0914C0186E08083E0914901D5
:100C7000F0914A01808180618083E0914901F09187
:100C80004A01808188608083E0914901F0914A01A6
:100C9000808180688083E0914901F0914A018081E0
:100CA0008F7D80838AE0882E912CA12CB12C00E0CE
:100CB00010E00E94A90380E00E948A034DE050E00A
:100CC0006EE171E084ED91E00E944B0281E00E94B0
:100CD0008A03C0902C01D0902D010D2C000CEE0841
:100CE000FF08F7FE4AC06DE284ED91E00E94CA035E
:100CF00022273327A9012C193D094E095F0919A2A2
:100D0000FE01B1967F01CA01B901A50194010E94BB
:100D1000F006605DD7016E937D0121153105410517
:100D2000510589F7E114F10469F0F7010190002001
:100D3000E9F73197AF014E195F09B70184ED91E0F2
:100D40000E944B0268EC70E080E090E00E94190283
:100D500080912C0190912D01019690932D0180930B
:100D60002C010115110509F4A4CF0E94B5028823B6
:100D700009F49FCF0E9400009CCFA701960119A201
:100D8000FE01B1967F01CA01B901A50194010E943B
:100D9000F006605DD7016E937D0121153105410597
:100DA000510589F7BFCFFB01DC0102C005900D9210
:100DB00041505040D8F7089597FB072E16F4009441
:100DC00007D077FD09D00E94120707FC05D03EF43A
:100DD000909581959F4F0895709561957F4F0895E7
:100DE000A1E21A2EAA1BBB1BFD010DC0AA1FBB1F2F
:100DF000EE1FFF1FA217B307E407F50720F0A21BA1
:100E0000B30BE40BF50B661F771F881F991F1A940D
:100E100069F760957095809590959B01AC01BD0137
:100E2000CF010895AA1BBB1B51E107C0AA1FBB1F1E
:100E3000A617B70710F0A61BB70B881F991F5A9566
:100E4000A9F780959095BC01CD010895EE0FFF1F85
:100E50000590F491E02D0994F894FFCF0000000074
:100E6000EB024B0278023803A90287029B020000C2
:100E70000000CA034B025903580348656C6C6F2C81
:080E800020576F726C64210021
:107E0000112484B714BE81FFF0D085E080938100F7
:107E100082E08093C00088E18093C10086E0809377
:107E2000C20080E18093C4008EE0C9D0259A86E02C
:107E300020E33CEF91E0309385002093840096BBD3
:107E4000B09BFECF1D9AA8958150A9F7CC24DD24C4
:107E500088248394B5E0AB2EA1E19A2EF3E0BF2EE7
:107E6000A2D0813461F49FD0082FAFD0023811F036
:107E7000013811F484E001C083E08DD089C08234E0
:107E800011F484E103C0853419F485E0A6D080C0E4
:107E9000853579F488D0E82EFF2485D0082F10E0AE
:107EA000102F00270E291F29000F111F8ED06801E7
:107EB0006FC0863521F484E090D080E0DECF843638
:107EC00009F040C070D06FD0082F6DD080E0C81688
:107ED00080E7D80618F4F601B7BEE895C0E0D1E017
:107EE00062D089930C17E1F7F0E0CF16F0E7DF06D8
:107EF00018F0F601B7BEE89568D007B600FCFDCFD4
:107F0000A601A0E0B1E02C9130E011968C91119780
:107F100090E0982F8827822B932B1296FA010C0160
:107F200087BEE89511244E5F5F4FF1E0A038BF0790
:107F300051F7F601A7BEE89507B600FCFDCF97BE46
:107F4000E89526C08437B1F42ED02DD0F82E2BD052
:107F50003CD0F601EF2C8F010F5F1F4F84911BD097
:107F6000EA94F801C1F70894C11CD11CFA94CF0C13
:107F7000D11C0EC0853739F428D08EE10CD085E9AC
:107F80000AD08FE07ACF813511F488E018D01DD067
:107F900080E101D065CF982F8091C00085FFFCCF94
:107FA0009093C60008958091C00087FFFCCF809118
:107FB000C00084FD01C0A8958091C6000895E0E648
:107FC000F0E098E1908380830895EDDF803219F02E
:107FD00088E0F5DFFFCF84E1DECF1F93182FE3DFCA
:107FE0001150E9F7F2DF1F91089580E0E8DFEE27F6
:047FF000FF270994CA
:027FFE00040479
:00000001FF
