:100000000C9462000C948A000C948A000C948A0070
:100010000C948A000C948A000C948A000C948A0038
:100020000C948A000C948A000C948A000C948A0028
:100030000C948A000C948A000C948A000C948A0018
:100040000C94AC030C948A000C941C040C94F603DE
:100050000C948A000C948A000C948A000C948A00F8
:100060000C948A000C948A000000000024002700F1
:100070002A0000000000250028002B0000000000DE
:1000800023002600290004040404040404040202DA
:100090000202020203030303030301020408102007
:1000A0004080010204081020010204081020000012
:1000B0000008000201000003040700000000000027
:1000C0000000C50511241FBECFEFD8E0DEBFCDBFB5
:1000D00011E0A0E0B1E0ECECFFE002C005900D9271
:1000E000A636B107D9F722E0A6E6B1E001C01D921D
:1000F000AC31B207E1F710E0C2E6D0E004C02197CE
:10010000FE010E94DE07C136D107C9F70E944E04E6
:100110000C94E4070C940000833081F028F48130C3
:1001200099F08230A9F008958730A9F08830C9F09D
:100130008430B1F4809180008F7D03C08091800075
:100140008F7780938000089584B58F7784BD08955C
:1001500084B58F7DFBCF8091B0008F778093B00006
:1001600008958091B0008F7DF9CFCF93DF93282F32
:1001700030E0F901E255FF4F8491F901E656FF4F57
:10018000D491F901EA57FF4FC491CC23A1F081111A
:100190000E948C00EC2FF0E0EE0FFF1FE458FF4FA1
:1001A000A591B491EC91ED2381E090E009F480E019
:1001B000DF91CF91089580E090E0FACF1F93CF9325
:1001C000DF93282F30E0F901E255FF4F8491F901C8
:1001D000E656FF4FD491F901EA57FF4FC491CC2363
:1001E000A9F0162F81110E948C00EC2FF0E0EE0F89
:1001F000FF1FEE58FF4FA591B4918FB7F894EC9183
:10020000111108C0D095DE23DC938FBFDF91CF9111
:100210001F910895DE2BF8CFCF93DF9390E0FC0180
:10022000E656FF4F24918A579F4FFC018491882303
:10023000D1F090E0880F991FFC01E859FF4FA5917C
:10024000B491FC01EE58FF4FC591D49161110EC0DD
:100250009FB7F8948C91E22FE0958E238C932881A0
:10026000E223E8839FBFDF91CF9108958FB7F89481
:10027000EC91E22BEC938FBFF6CF8E3008F08E50CE
:100280008770806480937C0080917A008064809382
:100290007A0080917A0086FDFCCF80917800909161
:1002A00079000895AF92BF92CF92DF92EF92FF92C2
:1002B0000F931F93CF93DF936C017B018B01040F8E
:1002C000151FEB015E01AE18BF08C017D10759F02A
:1002D0006991D601ED91FC910190F081E02DC6016C
:1002E0000995892B79F7C501DF91CF911F910F9166
:1002F000FF90EF90DF90CF90BF90AF900895FC01FA
:10030000538D448D252F30E0842F90E0821B930B7A
:10031000541710F0CF96089501970895FC01918D20
:10032000828D981761F0A28DAE0FBF2FB11D5D9623
:100330008C91928D9F5F9F73928F90E008958FEFC5
:100340009FEF0895FC01918D828D981731F0828D79
:10035000E80FF11D858D90E008958FEF9FEF0895D0
:10036000FC01918D228D892F90E0805C9F4F821B34
:1003700091098F73992708958FE791E00E94B0014A
:1003800021E0892B09F420E0822F089580E090E09D
:10039000892B29F00E94BC0181110C940000089562
:1003A000FC01A48DA80FB92FB11DA35ABF4F2C91EA
:1003B000848D90E001968F739927848FA689B789E1
:1003C0002C93A089B1898C91837080648C93938DD8
:1003D000848D981306C00288F389E02D80818F7D7B
:1003E00080830895EF92FF920F931F93CF93DF9333
:1003F000EC0181E0888F9B8D8C8D98131AC0E88961
:10040000F989808185FF15C09FB7F894EE89FF892F
:100410006083E889F98980818370806480839FBFCD
:1004200081E090E0DF91CF911F910F91FF90EF90CD
:100430000895F62E0B8D10E00F5F1F4F0F731127DD
:10044000E02E8C8D8E110CC00FB607FCFACFE88918
:10045000F989808185FFF5CFCE010E94D001F1CFCF
:10046000EB8DEC0FFD2FF11DE35AFF4FF0829FB78C
:10047000F8940B8FEA89FB8980818062CFCFCF937C
:10048000DF93EC01888D8823B9F0AA89BB89E889BC
:10049000F9898C9185FD03C0808186FD0DC00FB662
:1004A00007FCF7CF8C9185FFF2CF808185FFEDCFE0
:1004B000CE010E94D001E9CFDF91CF910895FC01D8
:1004C00001900020E9F73197AF01481B590BBC019F
:1004D0008FE791E00C9452018F929F92AF92BF925E
:1004E0000F931F93CF93DF93CDB7DEB7A1970FB6CE
:1004F000F894DEBF0FBECDBF19A2423008F44AE027
:100500008E010F5D1F4F842E912CB12CA12CA501C3
:1005100094010E94BC07E62FB901CA01EA30F4F445
:10052000E05DD801EE938D01232B242B252B79F749
:1005300090E080E0109719F0CD010E945F02A19633
:100540000FB6F894DEBF0FBECDBFDF91CF911F91E4
:100550000F91BF90AF909F908F900895E95CE1CF8D
:100560004F925F926F927F928F929F92AF92BF92C3
:10057000CF92DF92EF92FF926B017C01AC019B0165
:100580000E94B7078823C1F082E191E00E945F02D8
:100590007C018EE191E00E945F028E0D9F1DFF9015
:1005A000EF90DF90CF90BF90AF909F908F907F9013
:1005B0006F905F904F90089546015701E894B7F807
:1005C0002FEF3FEF4FE75FE7C501B4010E94B70788
:1005D00081110DC02FEF3FEF4FE75FE7C501B40179
:1005E0000E945F0618161CF486E191E0CFCF2FEF32
:1005F0003FEF4FE75FE4C701B6010E9445071816B9
:100600001CF48AE191E0C2CF2FEF3FEF4FE75FECA0
:10061000C701B6010E945F0687FDF3CF20E030E0FE
:10062000A901C701B6010E945F06B12CA12C87FF6A
:100630000AC06DE28FE791E00E94F2015C01F7FAD7
:10064000F094F7F8F0942AE037ED43EA5BE3C70152
:10065000B6010E94F3052B013C010E9464066B0168
:100660007C010E9493069B01AC01C301B2010E9470
:10067000F2052B013C014AE0C701B6010E946C0261
:100680007C01EA0CFB1C6EE28FE791E00E94F20114
:10069000E80EF91E20E030E040E251E4C301B2016F
:1006A0000E944A072B013C010E9464064B01B12CB9
:1006B000A12C4AE0C501B4010E946C02E80EF91EAB
:1006C000C501B4010E9493069B01AC01C301B201B4
:1006D0000E94F20520E030E040E251E40E944A0727
:1006E0000E94640690E080E04AE00E946C02E80EFE
:1006F000F91E4FCFCF92DF92EF92FF92CF93DF930D
:100700006C01990FEE08FF08F7FE1FC06DE28FE73E
:1007100091E00E94F201EC0166277727CB016C196A
:100720007D098E099F094AE00E946C02C80FD91FFB
:100730008EE191E00E945F028C0F9D1FDF91CF91AF
:10074000FF90EF90DF90CF9008954AE0C701B60187
:100750000E946C02EC01ECCF1F920F920FB60F9229
:1007600011242F933F938F939F93AF93BF938091C7
:100770007B0190917C01A0917D01B0917E0130912F
:100780007A0123E0230F2D3758F50196A11DB11DE5
:1007900020937A0180937B0190937C01A0937D014B
:1007A000B0937E018091760190917701A0917801BC
:1007B000B09179010196A11DB11D809376019093AE
:1007C0007701A0937801B0937901BF91AF919F9188
:1007D0008F913F912F910F900FBE0F901F90189502
:1007E00026E8230F0296A11DB11DD2CF1F920F92B2
:1007F0000FB60F9211242F933F934F935F936F93F4
:100800007F938F939F93AF93BF93EF93FF938FE764
:1008100091E00E94D001FF91EF91BF91AF919F9124
:100820008F917F916F915F914F913F912F910F9099
:100830000FBE0F901F9018951F920F920FB60F9238
:1008400011242F938F939F93EF93FF93E0918F0148
:10085000F09190018081E0919501F091960182FDE7
:100860001BC09081809198018F5F8F7320919901B7
:10087000821741F0E0919801F0E0E158FE4F958F2A
:1008800080939801FF91EF919F918F912F910F90FD
:100890000FBE0F901F9018958081F4CF789484B587
:1008A000826084BD84B5816084BD85B5826085BD6C
:1008B00085B5816085BD80916E00816080936E00FA
:1008C00010928100809181008260809381008091EC
:1008D000810081608093810080918000816080939D
:1008E00080008091B10084608093B1008091B0005D
:1008F00081608093B00080917A00846080937A0058
:1009000080917A00826080937A0080917A00816081
:1009100080937A0080917A00806880937A001092A8
:10092000C10061E080E00E940C0161E081E00E9472
:100930000C0161E082E00E940C0161E088E00E940D
:100940000C0160E08AE00E940C0160E089E00E94F6
:100950000C01E0918F01F091900182E08083E091A1
:100960008B01F0918C011082E0918D01F0918E014C
:100970008FEC808310929701E0919301F0919401A4
:1009800086E08083E0919101F09192018081806105
:100990008083E0919101F091920180818860808351
:1009A000E0919101F0919201808180688083E091D3
:1009B0009101F091920180818F7D8083C0E0D0E031
:1009C0008AE00E94B5007C0189E00E94B5008C019C
:1009D00081E291E00E945F02C7010E947A038DE2EA
:1009E00091E00E945F02C8010E947A0380E00E94A9
:1009F0003D01BC01990F880B990B0E9495062AE0D6
:100A000038E240EA5BE30E944A0760937201709308
:100A10007301809374019093750120E030E040E809
:100A200050E40E94450761E087FD60E080E00E949D
:100A3000DE0081E00E943D01BC01990F880B990BFB
:100A40000E9495062AE038E240EA5BE30E944A07EA
:100A500060936E0170936F018093700190937101A8
:100A600020E030E040E850E40E94450761E087FD67
:100A700060E081E00E94DE0082E00E943D01BC0156
:100A8000990F880B990B0E9495062AE038E240EAFC
:100A90005BE30E944A0760936A0170936B01809345
:100AA0006C0190936D0120E030E040E850E40E943A
:100AB000450761E087FD60E082E00E94DE0083E0A0
:100AC0000E943D01BC01990F880B990B0E9495066D
:100AD0002AE038E240EA5BE30E944A07609366013D
:100AE00070936701809368019093690120E030E082
:100AF00040E850E40E94450761E087FD60E088E03F
:100B00000E94DE0089E391E00E945F026091720121
:100B10007091730180917401909175010E94B002EF
:100B200084E491E00E945F0260916E0170916F0118
:100B300080917001909171010E94B0028FE491E068
:100B40000E945F0260916A0170916B0180916C015B
:100B500090916D010E94B0028AE591E00E945F02CF
:100B600060916601709167018091680190916901BF
:100B70000E94B002209709F423CF0E94BC01882371
:100B800009F41ECF0E9400001BCFEFE7F1E01382B3
:100B9000128288EE93E0A0E0B0E084839583A68380
:100BA000B78384E091E09183808385EC90E0958722
:100BB000848784EC90E09787868780EC90E0918B27
:100BC000808B81EC90E0938B828B82EC90E0958B14
:100BD000848B86EC90E0978B868B118E128E138E11
:100BE000148E08955058BB27AA270E940A060C9419
:100BF0000B070E94FD0638F00E94040720F039F42C
:100C00009F3F19F426F40C94FA060EF4E095E7FBE6
:100C10000C94F406E92F0E941C0758F3BA176207D8
:100C200073078407950720F079F4A6F50C943E0726
:100C30000EF4E0950B2EBA2FA02D0B01B9019001F7
:100C40000C01CA01A0011124FF27591B99F0593F3B
:100C500050F4503E68F11A16F040A22F232F342F83
:100C60004427585FF3CF469537952795A795F040D1
:100C70005395C9F77EF41F16BA0B620B730B840BE6
:100C8000BAF09150A1F0FF0FBB1F661F771F881F9E
:100C9000C2F70EC0BA0F621F731F841F48F48795F6
:100CA00077956795B795F7959E3F08F0B0CF9395E8
:100CB000880F08F09927EE0F9795879508950E9461
:100CC000D00608F481E008950E94240788F09F5719
:100CD00098F0B92F9927B751B0F0E1F0660F771F60
:100CE000881F991F1AF0BA95C9F714C0B13091F056
:100CF0000E943E07B1E008950C943E07672F782FBD
:100D00008827B85F39F0B93FCCF38695779567951A
:100D1000B395D9F73EF490958095709561957F4F86
:100D20008F4F9F4F0895E89409C097FB3EF490952C
:100D30008095709561957F4F8F4F9F4F9923A9F0B4
:100D4000F92F96E9BB279395F69587957795679543
:100D5000B795F111F8CFFAF4BB0F11F460FF1BC087
:100D60006F5F7F4F8F4F9F4F16C0882311F096E91A
:100D700011C0772321F09EE8872F762F05C06623C8
:100D800071F096E8862F70E060E02AF09A95660F81
:100D9000771F881FDAF7880F9695879597F908953A
:100DA000990F0008550FAA0BE0E8FEEF161617067C
:100DB000E807F907C0F012161306E407F50798F0E4
:100DC000621B730B840B950B39F40A2661F0232BFD
:100DD000242B252B21F408950A2609F4A140A69579
:100DE0008FEF811D811D089597F99F6780E870E05E
:100DF00060E008959FEF80EC089500240A94161691
:100E0000170618060906089500240A9412161306F8
:100E1000140605060895092E0394000C11F4882386
:100E200052F0BB0F40F4BF2B11F460FF04C06F5FA2
:100E30007F4F8F4F9F4F089557FD9058440F551F78
:100E400059F05F3F71F04795880F97FB991F61F04C
:100E50009F3F79F087950895121613061406551FC3
:100E6000F2CF4695F1DF08C0161617061806991F2F
:100E7000F1CF86957105610508940895E894BB2724
:100E800066277727CB0197F908950E94D00608F4CA
:100E90008FEF08950E945D070C940B070E94FD06DA
:100EA00038F00E94040720F0952311F00C94F4060A
:100EB0000C94FA0611240C943F070E941C0770F34F
:100EC000959FC1F3950F50E0551F629FF001729FEF
:100ED000BB27F00DB11D639FAA27F00DB11DAA1FFE
:100EE000649F6627B00DA11D661F829F2227B00D4B
:100EF000A11D621F739FB00DA11D621F839FA00DD6
:100F0000611D221F749F3327A00D611D231F849F25
:100F1000600D211D822F762F6A2F11249F5750407C
:100F20009AF0F1F088234AF0EE0FFF1FBB1F661FF7
:100F3000771F881F91505040A9F79E3F510580F0C0
:100F40000C94F4060C943F075F3FE4F3983ED4F30F
:100F5000869577956795B795F795E7959F5FC1F764
:100F6000FE2B880F911D9695879597F908950E94FD
:100F7000D006880B990B0895A1E21A2EAA1BBB1B61
:100F8000FD010DC0AA1FBB1FEE1FFF1FA217B30755
:100F9000E407F50720F0A21BB30BE40BF50B661F6B
:100FA000771F881F991F1A9469F76095709580952F
:100FB00090959B01AC01BD01CF010895EE0FFF1F7D
:0C0FC0000590F491E02D0994F894FFCF07
:100FCC0000000000F20152017F013F02B0018E01CE
:100FDC00A2016E616E00696E66006F7666000D0A86
:100FEC000076616C73657261696C3A20006D6F6498
:100FFC006F41435F44433A2000566F6C74616765E0
:10100C00303A2000566F6C74616765313A20005697
:10101C006F6C74616765323A2000566F6C7461674F
:06102C0065333A200000CC
:00000001FF
