:100000000C94CF010C94F7010C94F7010C94F701B8
:100010000C94F7010C94F7010C94F7010C94F70180
:100020000C94F7010C94F7010C94F7010C94F70170
:100030000C94F7010C94F7010C94F7010C94F70160
:100040000C9429060C94F7010C9499060C947306F1
:100050000C94F7010C94F7010C94F7010C94F70140
:100060000C94F7010C94F70100407A10F35A00A0A9
:10007000724E18090010A5D4E80000E87648170071
:1000800000E40B54020000CA9A3B000000E1F505B1
:10009000000080969800000040420F000000A086FB
:1000A00001000000102700000000E803000000002D
:1000B0006400000000000A000000000001000000D1
:1000C00000002C76D888DC674F0823DFC1DFAE59EB
:1000D000E1B1B796E5E3E453C63AE651997696E87E
:1000E000E6C28426EB898C9B62ED407C6FFCEFBC02
:1000F0009C9F40F2BAA56FA5F490055A2AF75C932D
:100100006B6CF9676DC11BFCE0E40D47FEF520E662
:10011000B500D0ED902E0300943577050080841E45
:10012000080000204E0A000000C80C333333330FA0
:10013000986E12831141EF8D2114893BE65516CF3D
:10014000FEE6DB18D1844B381BF77C1D901DA4BB49
:10015000E424203284725E228100C9F124ECA1E5FE
:100160003D27000000000000005F000000070007BE
:1001700000147F147F14242A7F2A12231308646238
:1001800036495522500005030000001C22410000A2
:1001900041221C0014083E081408083E08080050BC
:1001A00030000008080808080060600000201008FF
:1001B00004023E5149453E00427F400042615149A0
:1001C000462141454B311814127F102745454539CA
:1001D0003C4A494930017109050336494949360607
:1001E0004949291E00363600000056360000081422
:1001F0002241001414141414004122140802015165
:100200000906324979413E7E1111117E7F494949E3
:10021000363E414141227F4141221C7F49494941AB
:100220007F090909013E4149497A7F0808087F0092
:10023000417F41002040413F017F081422417F401F
:100240004040407F020C027F7F0408107F3E414106
:10025000413E7F090909063E4151215E7F09192966
:1002600046464949493101017F01013F4040403F35
:100270001F2040201F3F4038403F6314081463078D
:10028000087008076151494543007F41410002045D
:100290000810200041417F00040201020440404058
:1002A0004040000102040020545454787F484444E4
:1002B000383844444420384444487F38545454180F
:1002C000087E0901020C5252523E7F080404780055
:1002D000447D40002040443D007F10284400004100
:1002E0007F40007C041804787C0804047838444477
:1002F00044387C14141408081414187C7C08040472
:10030000084854545420043F4440203C4040207C42
:100310001C2040201C3C4030403C44281028440C09
:100320005050503C4464544C440008364100000096
:100330007F00000041360800100808100800000087
:10034000000000000000240027002A000000000038
:10035000250028002B0000000000230026002900B3
:10036000040404040404040402020202020203035B
:100370000303030301020408102040800102040863
:1003800010200102040810200000000800020100F3
:10039000000304070000000000000000CB06112449
:1003A0001FBECFEFD8E0DEBFCDBF22E0A2E5B1E0B7
:1003B00001C01D92A536B207E1F711E0A0E0B1E05F
:1003C000E4E7F1E202C005900D92A235B107D9F73A
:1003D00011E0CFECD1E004C02197FE010E94C00ED5
:1003E000CE3CD107C9F70E940B070C94B8100C94AF
:1003F0000000833081F028F4813099F08230A9F038
:1004000008958730A9F08830C9F08430B1F4809124
:1004100080008F7D03C0809180008F778093800063
:10042000089584B58F7784BD089584B58F7DFBCF03
:100430008091B0008F778093B00008958091B000D4
:100440008F7DF9CFCF93DF93282F30E0F901E85764
:10045000FC4F8491F901EC58FC4FD491F901E05A1A
:10046000FC4FC491CC23A1F081110E94F901EC2F23
:10047000F0E0EE0FFF1FEA5AFC4FA591B491EC910A
:10048000ED2381E090E009F480E0DF91CF910895C1
:1004900080E090E0FACF1F93CF93DF93282F30E0D6
:1004A000F901E857FC4F8491F901EC58FC4FD491C5
:1004B000F901E05AFC4FC491CC23A9F0162F811109
:1004C0000E94F901EC2FF0E0EE0FFF1FE45BFC4F00
:1004D000A591B4918FB7F894EC91111108C0D09503
:1004E000DE23DC938FBFDF91CF911F910895DE2B28
:1004F000F8CFCF93DF9390E0FC01EC58FC4F2491B0
:10050000805A9C4FFC0184918823D1F090E0880FA1
:10051000991FFC01EE5BFC4FA591B491FC01E45BDB
:10052000FC4FC591D49161110EC09FB7F8948C9186
:10053000E22FE0958E238C932881E223E8839FBFEE
:10054000DF91CF9108958FB7F894EC91E22BEC9363
:100550008FBFF6CF8E3008F08E5087708064809306
:100560007C0080917A00806480937A0080917A0088
:1005700086FDFCCF809178009091790008953FB777
:10058000F8948091710190917201A0917301B091E2
:10059000740126B5A89B05C02F3F19F00196A11D37
:1005A000B11D3FBFBA2FA92F982F8827BC01CD01BD
:1005B000620F711D811D911D42E0660F771F881F1C
:1005C000991F4A95D1F708958F929F92AF92BF924B
:1005D000CF92DF92EF92FF924B015C010E94BF022B
:1005E0006B017C010E94BF026C197D098E099F0975
:1005F000683E734081059105A8F321E0821A9108B5
:10060000A108B10888EEC80E83E0D81EE11CF11CD9
:1006100081149104A104B10429F7FF90EF90DF90B9
:10062000CF90BF90AF909F908F900895DB0114966C
:100630004D915C9115976D917C91DC01ED91FC9150
:100640000280F381E02D0994AF92BF92CF92DF92A6
:10065000EF92FF920F931F93CF93DF936C017B0177
:100660008B01040F151FEB015E01AE18BF08C01708
:10067000D10759F06991D601ED91FC910190F0817B
:10068000E02DC6010995892B79F7C501DF91CF913E
:100690001F910F91FF90EF90DF90CF90BF90AF90A0
:1006A0000895FC01538D448D252F30E0842F90E078
:1006B000821B930B541710F0CF960895019708955D
:1006C000FC01918D828D981761F0A28DAE0FBF2F26
:1006D000B11D5D968C91928D9F5F9F73928F90E07C
:1006E00008958FEF9FEF0895FC01918D828D9817EB
:1006F00031F0828DE80FF11D858D90E008958FEF28
:100700009FEF0895FC01918D228D892F90E0805CF0
:100710009F4F821B91098F739927089585E791E078
:100720000E94820321E0892B09F420E0822F0895A2
:1007300080E090E0892B29F00E948E0381110C94B7
:1007400000000895FC01A48DA80FB92FB11DA35A74
:10075000BF4F2C91848D90E001968F739927848FE1
:10076000A689B7892C93A089B1898C918370806404
:100770008C93938D848D981306C00288F389E02DA5
:1007800080818F7D80830895EF92FF920F931F9356
:10079000CF93DF93EC0181E0888F9B8D8C8D981334
:1007A0001AC0E889F989808185FF15C09FB7F89440
:1007B000EE89FF896083E889F9898081837080648C
:1007C00080839FBF81E090E0DF91CF911F910F91D7
:1007D000FF90EF900895F62E0B8D10E00F5F1F4FE6
:1007E0000F731127E02E8C8D8E110CC00FB607FCF5
:1007F000FACFE889F989808185FFF5CFCE010E9483
:10080000A203F1CFEB8DEC0FFD2FF11DE35AFF4F4B
:10081000F0829FB7F8940B8FEA89FB898081806210
:10082000CFCFCF93DF93EC01888D8823B9F0AA89CD
:10083000BB89E889F9898C9185FD03C0808186FD9B
:100840000DC00FB607FCF7CF8C9185FFF2CF8081EA
:1008500085FFEDCFCE010E94A203E9CFDF91CF91BA
:100860000895089590E080E00895CF93DF93EC0120
:1008700088819981009711F00E94620F1982188275
:100880001D821C821B821A82DF91CF910895FC0188
:1008900080819181009711F00C94620F0895EF927E
:1008A000FF920F931F93CF93DF93EC01042F8E8160
:1008B0000E944B0260E088850E944B02FC80ED8024
:1008C00018E0602F661F6627661F8E2D0E944B0260
:1008D000000F61E08F2D0E944B0260E08F2D0E947F
:1008E0004B02115071F761E08885DF91CF911F9124
:1008F0000F91FF90EF900C944B02CF93DF93C2E1E6
:10090000D2E01C8690E06B8529E3629F612D112463
:10091000669570E06F5F7F4F0E94980E8D8740E86C
:1009200060E0CE010E944F044D85406460E0CE013E
:10093000DF91CF910C944F04CF93DF9380E00E941E
:100940007D04D0E0C0E080911D0286958695869555
:1009500090911C02899FC0011124C817D90740F447
:1009600040E061E082E192E00E944F042196EBCFEB
:1009700080E0DF91CF910C947D040F931F93CF9370
:10098000DF93EC0188819981009759F02A813B819E
:100990002617370730F081E0DF91CF911F910F913B
:1009A00008958B016F5F7F4F0E94EB0F009759F006
:1009B000998388831B830A832C813D81232B59F7DC
:1009C000FC011082E8CF80E0E7CF0F931F93CF9315
:1009D000DF93EC010C811D810F5F1F4FB8010E9456
:1009E000BD04882391F0288139818C819D8164E246
:1009F00071E0820F931F0E94B1101D830C83CE0102
:100A0000DF91CF911F910F910895CE010E9435047F
:100A1000F6CFEF92FF920F931F93CF93DF93EC01EA
:100A2000FB01E080F180E114F10411F104811581F2
:100A300001151105A9F08C819D81080F191FB801BE
:100A4000CE010E94BD04882399F0288139818C81D0
:100A50009D81B701820F931F0E94B1101D830C83EB
:100A6000CE01DF91CF911F910F91FF90EF900895EC
:100A7000CE010E943504F4CFEF92FF920F931F93A3
:100A8000CF93DF93EC017B018A01BA010E94BD0480
:100A900081110BC0CE010E943504CE01DF91CF91B0
:100AA0001F910F91FF90EF9008951D830C83B70164
:100AB000888199810E94B110F0CFEF92FF920F933D
:100AC0001F93CF93DF93CDB7DEB7A1970FB6F894FE
:100AD000DEBF0FBECDBF7C01CB01BA01F701118291
:100AE000108213821282158214828E010F5F1F4FB3
:100AF00022E044E00E94DA0A0097C9F0FC0101906C
:100B00000020E9F73197AF01481B590BBC01C70121
:100B10000E943C05A1960FB6F894DEBF0FBECDBF74
:100B2000DF91CF911F910F91FF90EF900895C70132
:100B30000E943504EFCFFC011182108213821282D1
:100B400015821482FB0101900020E9F73197AF0173
:100B5000461B570B0C943C05CF92DF92EF92FF920D
:100B60000F931F93CF93DF9300D000D01F92CDB788
:100B7000DEB767FD6BC07C01862F90E0603208F421
:100B800055C0809725E0289FB001299F700D112442
:100B90006E597E4F45E050E0CE0101960E94F80A62
:100BA0008E010F5F1F4F680185E0C80ED11CF80150
:100BB00041918F01F70186858111409561E0C70160
:100BC0000E944F040C151D0591F7F70146854195CC
:100BD00061E0C7010E944F04F701848590E006960A
:100BE000628570E00E94980E8487892B79F4858550
:100BF00090E00196638529E3629F612D112466953B
:100C000070E06F5F7F4F0E94980E858781E090E0D3
:100C10000F900F900F900F900F90DF91CF911F9139
:100C20000F91FF90EF90DF90CF900895880F991F5C
:100C3000F701E80FF91F078510890115110509F063
:100C4000B2CF45E050E062E671E0A6CF90E080E0F0
:100C5000DFCF1F920F920FB60F9211242F933F9365
:100C60008F939F93AF93BF9380916D0190916E018D
:100C7000A0916F01B091700130916C0123E0230FBE
:100C80002D3758F50196A11DB11D20936C0180935D
:100C90006D0190936E01A0936F01B09370018091EC
:100CA000710190917201A0917301B091740101964C
:100CB000A11DB11D8093710190937201A0937301E6
:100CC000B0937401BF91AF919F918F913F912F91FC
:100CD0000F900FBE0F901F90189526E8230F0296D5
:100CE000A11DB11DD2CF1F920F920FB60F921124EA
:100CF0002F933F934F935F936F937F938F939F9324
:100D0000AF93BF93EF93FF9385E791E00E94A20317
:100D1000FF91EF91BF91AF919F918F917F916F91D3
:100D20005F914F913F912F910F900FBE0F901F90A9
:100D300018951F920F920FB60F9211242F938F9335
:100D40009F93EF93FF93E0918501F091860180815D
:100D5000E0918B01F0918C0182FD1BC0908180910C
:100D60008E018F5F8F7320918F01821741F0E09188
:100D70008E01F0E0EB58FE4F958F80938E01FF912E
:100D8000EF919F918F912F910F900FBE0F901F9019
:100D900018958081F4CFE5E7F1E01382128288EEA6
:100DA00093E0A0E0B0E084839583A683B7838AE0D4
:100DB00091E09183808385EC90E09587848784EC33
:100DC00090E09787868780EC90E0918B808B81EC18
:100DD00090E0938B828B82EC90E0958B848B86ECF9
:100DE00090E0978B868B118E128E138E148EE2E11B
:100DF000F2E0138212828CE191E09183808383E0A0
:100E0000848384E0858385E0868386E0878387E02A
:100E1000808716860895CF93DF93CDB7DEB7AA9764
:100E20000FB6F894DEBF0FBECDBF789484B5826054
:100E300084BD84B5816084BD85B5826085BD85B57E
:100E4000816085BD80916E00816080936E001092FC
:100E50008100809181008260809381008091810077
:100E60008160809381008091800081608093800008
:100E70008091B10084608093B1008091B000816066
:100E80008093B00080917A00846080937A00809192
:100E90007A00826080937A0080917A0081608093EA
:100EA0007A0080917A00806880937A001092C10065
:100EB00084E580931C0280E380931D0210921B0244
:100EC00010921E0210921F02E1E2F2E080E4DF01C4
:100ED0001D928A95E9F761E0809116020E947902DD
:100EE00061E0809117020E94790261E0809118020E
:100EF0000E94790261E0809119020E94790261E00A
:100F000080911A020E94790261E0809119020E9488
:100F10004B0261E080911A020E944B0260E08091D6
:100F200019020E944B0264E670E080E090E00E94AB
:100F3000E40261E0809119020E944B0241E260E00C
:100F400082E192E00E944F0443E160E082E192E09E
:100F50000E944F0480911B0242EC813039F440EE34
:100F600060E082E192E00E944F0445E060E082E1AF
:100F700092E00E944F0440E260E082E192E00E9431
:100F80004F0449E060E082E192E00E944F040E9439
:100F90009C0448E060E082E192E00E944F044CE053
:100FA00060E082E192E00E944F0464E670E080E03D
:100FB00090E00E94E40240E860E082E192E00E945A
:100FC0004F0440E460E082E192E00E944F0461E05F
:100FD00080E00E94790261E081E00E94790261E094
:100FE00082E00E94790261E088E00E94790260E07C
:100FF0008DE00E94790260E08CE00E947902E0912D
:101000008501F091860182E08083E0918101F09179
:1010100082011082E0918301F09184018FEC808342
:1010200010928D01E0918901F0918A0186E0808320
:10103000E0918701F0918801808180618083E09157
:101040008701F0918801808188608083E091870129
:10105000F0918801808180688083E0918701F09120
:10106000880180818F7D80838CE00E9422028C0128
:1010700080E00E94AA02BC01990F880B990B0E9484
:101080003F0D2CE030E340EC5CE30E949E0D4B01F1
:101090005C018092680190926901A0926A01B0920D
:1010A0006B0120E030E040EA51E40E94930E61E0E1
:1010B00087FD60E080E00E944B0281E00E94AA026E
:1010C000BC01990F880B990B0E943F0D2CE030E377
:1010D00040EC5CE30E949E0D6B017C01C0926401B8
:1010E000D0926501E0926601F092670120E030E065
:1010F00040EA51E40E94930E61E087FD60E081E0E8
:101100000E944B0282E00E94AA02BC01990F880B48
:10111000990B0E943F0D2CE030E340EC5CE30E9411
:101120009E0D6F8F78A389A39AA36093600170933B
:101130006101809362019093630120E030E040EA16
:1011400051E40E94930E61E087FD60E082E00E941E
:101150004B0283E00E94AA02BC01990F880B990BF5
:101160000E943F0D2CE030E340EC5CE30E949E0DBA
:101170002B013C0140925C0150925D0160925E0146
:1011800070925F0120E030E040EA51E40E94930E4B
:1011900061E087FD60E088E00E944B0201301105AC
:1011A00009F07AC121E834E045E35FE3C501B40109
:1011B0000E949E0D609368017093690180936A019B
:1011C00090936B0121E834E045E35FE3C701B6018A
:1011D0000E949E0D60936401709365018093660187
:1011E0009093670121E834E045E35FE36F8D78A1D8
:1011F00089A19AA10E949E0D609360017093610184
:10120000809362019093630121E834E045E35FE35A
:10121000C301B2010E949E0D60935C0170935D0159
:1012200080935E0190935F010E949C0480E00E9485
:101230007D04409168015091690160916A0170914B
:101240006B01CE0101960E945D0566E271E0CE0160
:1012500007960E949B05BE016F5F7F4FCE010796E8
:101260000E940905BC0182E192E00E941603CE01B2
:1012700007960E944704CE0101960E94470481E030
:101280000E947D0440916401509165016091660166
:1012900070916701CE0101960E945D0560E371E0E7
:1012A000CE0107960E949B05BE016F5F7F4FCE0166
:1012B00007960E940905BC0182E192E00E94160394
:1012C000CE0107960E944704CE0101960E94470472
:1012D00082E00E947D044091600150916101609123
:1012E000620170916301CE0101960E945D056AE37F
:1012F00071E0CE0107960E949B05BE016F5F7F4F94
:10130000CE0107960E940905BC0182E192E00E948D
:101310001603CE0107960E944704CE0101960E9453
:10132000470483E00E947D0440915C0150915D017F
:1013300060915E0170915F01CE0101960E945D0592
:1013400064E471E0CE0107960E949B05BE016F5FC9
:101350007F4FCE0107960E940905BC0182E192E011
:101360000E941603CE0107960E944704CE01019603
:101370000E94470468EC70E080E090E00E94E40284
:101380008DE00E942202019709F079C040915C0132
:1013900050915D0160915E0170915F01CE010196F7
:1013A0000E945D0540916001509161016091620170
:1013B00070916301CE0107960E945D054091640122
:1013C000509165016091660170916701CE010D96A3
:1013D0000E945D05409168015091690160916A0128
:1013E00070916B01CE0149960E945D051C8A1B8A93
:1013F0001E8A1D8A188E1F8A698D7A8D6115710566
:1014000031F04D8D5E8DCE0143960E943C05CE019C
:1014100043960E94E504BE01635F7F4F0E94090569
:101420000E94E504BE01695F7F4F0E9409050E948A
:10143000E504BE016F5F7F4F0E940905BC0185E78F
:1014400091E00E94160342E050E06EE471E085E70F
:1014500091E00E942403CE0143960E944704CE01EE
:1014600049960E944704CE010D960E944704CE0182
:1014700007960E944704CE0101960E94470480E02F
:1014800090E0892B09F4F0CD0E948E03882309F4A3
:10149000EBCD0E940000E8CD84E00E94AA02BC01CE
:1014A000990F880B990B0E943F0D2AE038E240EA21
:1014B0005BE30E949E0D6FA378A789A79AA760930C
:1014C00058017093590180935A0190935B0185E014
:1014D0000E94AA02BC01990F880B990B0E943F0D34
:1014E0002AE038E240EA5BE30E949E0D6BA37CA3F6
:1014F0008DA39EA360935401709355018093560170
:101500009093570189E00E9422028C01909353012D
:10151000809352018AE00E9422021C0120E030E008
:10152000A9016FA178A589A59AA50E94380D8111FE
:101530000CC0B7FAB094B7F8B0948092680190925A
:101540006901A0926A01B0926B0120E030E0A9012C
:101550006BA17CA18DA19EA10E94380D81110CC0B0
:10156000F7FAF094F7F8F094C0926401D092650114
:10157000E0926601F0926701012B69F48F8D98A1CA
:10158000A9A1BAA1B0588093600190936101A09382
:101590006201B0936301232809F046CED301C20152
:1015A000B05880935C0190935D01A0935E01B0936D
:1015B0005F013ACEEF920F931F93CF93DF93E80131
:1015C00034E047FD34E1042E000C550B57FF03C0F7
:1015D000519541955109E32E022F242FAE010E940F
:1015E000010BCE01DF91CF911F910F91EF900895E4
:1015F000FB01DC0102C005900D9241505040D8F72C
:101600000895A9E0B0E0E7E0FBE00C94620E6A0107
:10161000F22EB02E102FFBE3AF2EA01608F41BE322
:101620001F5F012F27E0AE014F5F5F4F0E94600CEC
:10163000BC018981982F9970913009F43FC09BE2D9
:10164000E1FC04C09E2D9170E0FC3AC05E2D50710B
:10165000E82FE87083FF46C084E0911101C083E069
:10166000EF2DE81B8F1508F0E0E0D6018E2F20E269
:10167000552351F1992329F0D6019C93C601019677
:101680006C0196012D5F3F4FE2FE24C08EE4D6012F
:101690008C9391E411969C93119712968C93D90197
:1016A0008E2F90E281111BC0E20FF32FF11D1082EB
:1016B0008EEF9FEF2996ECE00C947E0E9DE2C6CF54
:1016C00090E2C4CF2D9381508111FCCFCE0ED11C5E
:1016D000E0E0D0CF8EE6D6018C9391E6DBCF9D93F0
:1016E0008150E0CF482F447082FF3DC084E09111CB
:1016F00001C083E08F1510F4EF2DE81BD6018E2F6B
:1017000020E2552309F1992329F0D6019C93C601C3
:1017100001966C0196012D5F3F4FE2FE1BC089E4EC
:10172000D6018C938EE411968C93119786E41296D1
:101730008C93D9018E2F90E2882309F4B5CF9D9325
:101740008150FACF2D9381508111FCCFCE0ED11C48
:10175000E0E0D9CF89E6D6018C938EE611968C9382
:10176000119786E6E4CF9B0177FF02C030E020E0CE
:10177000A1E0B0E0911102C0B0E0A0E0F901319623
:10178000AE0FBF1F8B2C912CBB2009F461C05401FC
:10179000EFEFAE1ABE0AAA0DBB1DFA161B0619F012
:1017A00014F04F2D4A1B511188C0E3FC59C076013B
:1017B000A42FB0E2A1114FC0C40ED11C992309F48B
:1017C0005BC040E0D6011196F60190836D01552370
:1017D00009F448C0012F060F9A81582F507184FFD9
:1017E00003C0913309F4015010160CF047C00930C2
:1017F00008F008E0EEE2FE2E5B01A01AB1088501B8
:101800009194819491082F3F320729F4D601FC92DC
:10181000F60131966F016217730794F102171307EF
:101820007CF5DB01A21BB30BAA24A394B12CAC0E54
:10183000BD1EAA0DBB1D11968C9121503109D601F8
:10184000119628153905F4F0F60180836D01DBCF80
:10185000B12CA12CA0CFF701B1937F01A150AACF49
:101860009111B0CFD601942F50E302C05D939150F7
:101870009111FCCFC40ED11C40E0ACCF01E0BACF37
:1018800080E3DBCF6217730731F4963388F4953326
:1018900011F4552369F0F6018083FD01842F90E255
:1018A000811108C0A40FB11D1C9290E080E002CF0E
:1018B00081E3F1CF91938150F3CF911183CF8ACF00
:1018C000283008F027E03327DA01990F311D87FD12
:1018D000916000966105710539F432602E5F3D9389
:1018E00030E32A95E1F708959F3F30F08038710585
:1018F000610509F03C5F3C5F3D93913008F08068E2
:10190000911DDF93CF931F930F93FF92EF92192FA7
:10191000987F9695E92F96959695E90FFF27EE53B8
:10192000FF4F99273327EE24FF24A701E7010590F5
:101930000894079428F4360FE71EF81E491F511D1E
:10194000660F771F881F991F0694A1F705900794CB
:1019500028F4E70EF81E491F561FC11D770F881F78
:10196000991F661F0694A1F70590079428F4F80EB6
:10197000491F561FC71FD11D880F991F661F771F4C
:101980000694A1F70590079420F4490F561FC71F2E
:10199000D81F990F661F771F881F0694A9F7849197
:1019A0001095177041F0D695C79557954795F794C0
:1019B000E7941A95C1F7E8E6F0E068941590159160
:1019C00035916591959105907FE27395E118F10A43
:1019D000430B560BC90BD009C0F7E10CF11E431F96
:1019E000561FC91FD01D7EF4703311F48A95E6CFBF
:1019F000E894015030F0080F0AF40027021708F4A9
:101A0000202F2395022F7A3328F079E37D932A95AE
:101A1000E9F710C07D932A9589F606949795679506
:101A2000379517951794E118F10A430B560BC90B1C
:101A3000D00998F023957E9173957A3308F070E37E
:101A40007C932013B8F77E9170617D9330F083957D
:101A500071E37D9370E32A95E1F71124EF90FF90F5
:101A60000F911F91CF91DF91992787FD9095089550
:101A70000E947A0D08F481E00895E89409C097FB6C
:101A80003EF490958095709561957F4F8F4F9F4F55
:101A90009923A9F0F92F96E9BB279395F695879599
:101AA00077956795B795F111F8CFFAF4BB0F11F45C
:101AB00060FF1BC06F5F7F4F8F4F9F4F16C0882303
:101AC00011F096E911C0772321F09EE8872F762F39
:101AD00005C0662371F096E8862F70E060E02AF07A
:101AE0009A95660F771F881FDAF7880F9695879566
:101AF00097F90895990F0008550FAA0BE0E8FEEF3B
:101B000016161706E807F907C0F012161306E407C1
:101B1000F50798F0621B730B840B950B39F40A26BA
:101B200061F0232B242B252B21F408950A2609F498
:101B3000A140A6958FEF811D811D08950E94B10DD2
:101B40000C94220E0E94140E38F00E941B0E20F0FE
:101B5000952311F00C940B0E0C94110E11240C947F
:101B6000560E0E94330E70F3959FC1F3950F50E00F
:101B7000551F629FF001729FBB27F00DB11D639F3F
:101B8000AA27F00DB11DAA1F649F6627B00DA11DE5
:101B9000661F829F2227B00DA11D621F739FB00D8B
:101BA000A11D621F839FA00D611D221F749F3327FB
:101BB000A00D611D231F849F600D211D822F762F94
:101BC0006A2F11249F5750409AF0F1F088234AF071
:101BD000EE0FFF1FBB1F661F771F881F91505040DD
:101BE000A9F79E3F510580F00C940B0E0C94560EF5
:101BF0005F3FE4F3983ED4F3869577956795B79564
:101C0000F795E7959F5FC1F7FE2B880F911D96957D
:101C1000879597F9089597F99F6780E870E060E0ED
:101C200008959FEF80EC089500240A941616170675
:101C300018060906089500240A94121613061406BD
:101C400005060895092E0394000C11F4882352F020
:101C5000BB0F40F4BF2B11F460FF04C06F5F7F4FD8
:101C60008F4F9F4F089557FD9058440F551F59F0BF
:101C70005F3F71F04795880F97FB991F61F09F3F79
:101C800079F087950895121613061406551FF2CFA2
:101C90004695F1DF08C0161617061806991FF1CFF2
:101CA00086957105610508940895E894BB27662719
:101CB0007727CB0197F908952F923F924F925F9229
:101CC0006F927F928F929F92AF92BF92CF92DF924C
:101CD000EF92FF920F931F93CF93DF93CDB7DEB7B1
:101CE000CA1BDB0B0FB6F894DEBF0FBECDBF099445
:101CF0002A88398848885F846E847D848C849B849C
:101D0000AA84B984C884DF80EE80FD800C811B81A9
:101D1000AA81B981CE0FD11D0FB6F894DEBF0FBED8
:101D2000CDBFED0108950E947A0D08F48FEF08955C
:101D300097FB072E16F4009407D077FD09D00E9478
:101D4000AC0E07FC05D03EF4909581959F4F089509
:101D5000709561957F4F0895AA1BBB1B51E107C089
:101D6000AA1FBB1FA617B70710F0A61BB70B881F2B
:101D7000991F5A95A9F780959095BC01CD010895BA
:101D8000EE0FFF1F0590F491E02D09940F931F9320
:101D9000CF93DF938230910510F482E090E0E091E0
:101DA0006302F091640230E020E0B0E0A0E0309700
:101DB00099F42115310509F44AC0281B390B243048
:101DC0003105D8F58A819B816115710589F1FB0187
:101DD00093838283FE0111C040815181028113816E
:101DE00048175907E0F04817590799F4109761F020
:101DF00012960C93129713961C933296CF01DF9193
:101E0000CF911F910F910895009363021093640284
:101E1000F4CF2115310551F04217530738F0A901CD
:101E2000DB019A01BD01DF01F801C1CFEF01F9CF5C
:101E30009093640280936302CDCFFE01E20FF31F03
:101E4000819391932250310939832883D7CF2091F0
:101E5000610230916202232B41F420910201309102
:101E600003013093620220936102209100013091BE
:101E700001012115310541F42DB73EB74091040110
:101E800050910501241B350BE0916102F091620233
:101E9000E217F307A0F42E1B3F0B2817390778F041
:101EA000AC014E5F5F4F2417350748F04E0F5F1FA0
:101EB0005093620240936102819391939FCFF0E02F
:101EC000E0E09CCFCF93DF930097E9F0FC013297DD
:101ED00013821282A0916302B0916402ED0130E09E
:101EE00020E01097A1F420813181820F931F20916F
:101EF0006102309162022817390709F061C0F0933E
:101F00006202E0936102DF91CF910895EA01CE175A
:101F1000DF07E8F54A815B819E0141155105B1F764
:101F2000E901FB83EA8349915991C40FD51FEC174E
:101F3000FD0761F4808191810296840F951FE9016C
:101F400099838883828193819B838A83F0E0E0E098
:101F500012968D919C9113970097B9F52D913C9114
:101F60001197CD010296820F931F2091610230914B
:101F700062022817390739F6309751F5109264023A
:101F800010926302B0936202A0936102BCCFD3832C
:101F9000C28340815181840F951FC817D90761F40E
:101FA0004E5F5F4F88819981480F591F518340834D
:101FB0008A819B81938382832115310509F0B0CFFB
:101FC000F0936402E09363029ECFFD01DC01C0CF79
:101FD00013821282D7CFB0E0A0E0E1EFFFE00C94D3
:101FE0005E0E8C01009751F4CB010E94C60E8C014D
:101FF000C801CDB7DEB7E0E10C947A0EFC01E60F24
:10200000F71F9C0122503109E217F30708F49DC025
:10201000D901CD91DC911197C617D70798F0C5303B
:10202000D10530F3CE0104978617970708F3C61B36
:10203000D70B2297C193D1936D937C93CF010E94CC
:10204000620FD6CF5B01AC1ABD0A4C018C0E9D1EEF
:10205000A0916302B0916402512C412CF12CE12C2F
:10206000109731F58091610290916202881599056F
:1020700009F05CC04616570608F058C08091000170
:1020800090910101009741F48DB79EB740910401F2
:1020900050910501841B950BE817F90708F055C00E
:1020A000F0936202E0936102F90171836083A0CF33
:1020B0008D919C91119712966C90129713967C902B
:1020C0001397A815B90559F56C0142E0C40ED11C4F
:1020D000CA14DB0420F1AC014A195B09DA0112963B
:1020E000159780F06282738251834083D9016D938A
:1020F0007C93E114F10471F0D7011396FC93EE93F5
:10210000129776CF22968C0F9D1FF90191838083C1
:10211000F301EFCFF0936402E093630269CF4816B6
:10212000590608F42C017D01D3019ACFCB010E94FE
:10213000C60E7C01009749F0AE01B8010E94A810BC
:10214000C8010E94620F870153CF10E000E050CF1A
:10215000FB01DC0102C001900D9241505040D8F7C4
:102160000895FB01DC0101900D920020E1F7089534
:04217000F894FFCF11
:1021740000006502800000000000C4032403510332
:10218400110482036003740300000000AC052403FF
:10219400320431042C00566F6C74616A65303A0065
:1021A400566F6C74616A65313A00566F6C74616A7B
:1021B40065323A00566F6C74616A65333A000D0AF1
:0221C400000019
:00000001FF
